:020000040800F2
:1000000000000120050300080B030008110300088D
:1000100033030008390300085B03000800000000F8
:100020000000000000000000000000007D03000848
:100030008303000800000000890300088F03000804
:10004000AD030008AD030008AD030008AD030008D0
:10005000AD030008AD030008AD030008AD030008C0
:10006000AD030008AD030008AD030008AD030008B0
:10007000AD030008AD030008AD030008AD030008A0
:10008000AD030008AD030008AD0300080000000048
:10009000000000000000000000000000AD030008A8
:1000A000AD030008AD030008AD030008AD03000870
:1000B000AD030008AD030008AD030008AD03000860
:1000C000AD030008AD030008AD030008AD03000850
:1000D000AD030008AD030008AD03000800000000F8
:1000E000AD030008AD030008AD03000800000000E8
:1000F000000000000000000000000000AD03000848
:1001000000000000AD030008AD030008AD030008C7
:1001100000000000000000000000000000000000DF
:10012000AD030008AD030008AD030008AD030008EF
:10013000AD03000800000000000000000000000007
:10014000000000000000000000000000AD030008F7
:10015000AD030008AD030008AD030008AD030008BF
:10016000AD030008AD03000800000000000000001F
:10017000000000000000000000000000000000007F
:1001800000000000AD0300080000000000000000B7
:10019000AD03000880B596B000AF00F037F94F4BC3
:1001A0007B6524E07B6D1A1D7A651B683B647B6D63
:1001B0001A1D7A651B68FB637B6D1A1D7A651B68C7
:1001C000BB633B6C7B63FB6B3B63BB6BFB623B6B5F
:1001D000BB6207E07A6B131D7B63BB6A191DB962B2
:1001E00012681A60FA6ABB6A9A42F3D800BF7B6D44
:1001F0003B4A9342D6D33B4B3B651AE03B6D1A1DFD
:100200003A651B68BB643B6D1A1D3A651B687B64CD
:10021000BB6C7B627B6C3B627B6AFB6104E0FB69CD
:100220001A1DFA6100221A603A6AFB699A42F6D8EE
:1002300000BF3B6D2C4A9342E0D300F0F5F83A1D25
:1002400007F108031146184600F0CEF8274A284B5C
:10025000D31A9B103B610023FB6007E0244AFB6834
:1002600052F823309847FB680133FB603A69FB681A
:100270009A42F3DC1F4A204BD31A9B103B610023A8
:10028000FB6007E01C4AFB6852F823309847FB6884
:100290000133FB603A69FB689A42F3DC00BFBB683C
:1002A0007A681146184600F06BF9F864134A144B4B
:1002B000D31A9B10BB61BB697B6108E07B69013B82
:1002C0000F4A52F8233098477B69013B7B617B6979
:1002D000002BF3DC00BFF86C00F080F8B4030008DA
:1002E000CC030008CC030008DC030008DC03000892
:1002F000DC030008DC030008DC030008DC03000862
:10030000DC0300082548004700BF80B400AFFEE7CB
:100310001EF0040F0CBFEFF30880EFF30980714665
:100320001F4A104700BF80B483B000AF78603960C7
:10033000FEE780B400AFFEE71EF0040F0CBFEFF342
:100340000880EFF309807146164A104700BF80B459
:1003500083B000AF78603960FEE71EF0040F0CBF79
:10036000EFF30880EFF3098071460F4A104700BF92
:1003700080B483B000AF78603960FEE780B400AF2E
:10038000FEE780B400AFFEE780B400AFFEE780B4C4
:1003900000AF00BFBD4680BC70470000950100085B
:1003A000270300084F0300087103000880B400AF62
:0203B000FEE766
:1003B400740C0008000000201C000020740C0008CD
:1003C40000000010000000101C0000202800002085
:0803D400000000100000001001
:1003DC0080B582B000AF786000F03CF880B483B098
:1003EC0000AF786039607B6801221A603B68034A71
:1003FC001A6000BF0C37BD4680BC7047000000205F
:10040C0080B500AF00F02AF8024B034A9A6000BF97
:10041C0080BD00BF00ED00E00000000880B500AF1B
:10042C0000F028F800BF80BD80B400AFBFF34F8F41
:10043C0000BF064BDB6803F4E0620449044B134332
:10044C00CB60BFF34F8F00BF00BFFDE700ED00E0B6
:10045C000400FA0580B500AFFFF7E6FF80B400AFEB
:10046C00034B4FF000629A6000BFBD4680BC7047E2
:10047C0000ED00E080B487B000AF00233B610023A7
:10048C007B610223FB600023BB6002237B60344B47
:10049C009B6803F00C033B613B69082B11D03B6953
:1004AC00082B44D83B69002B03D03B69042B04D0A8
:1004BC003DE02C4B2C4A1A603DE02A4B2B4A1A602B
:1004CC0039E0274B5B689B0D03F00103BB60244BA9
:1004DC005B6803F03F037B60BB68002B0CD0234AA6
:1004EC007B68B2FBF3F31E4A52689209C2F308020E
:1004FC0002FB03F37B610BE01B4A7B68B2FBF3F35B
:10050C00174A52689209C2F3080202FB03F37B619B
:10051C00134B5B681B0C03F0030301335B00FB60A4
:10052C007A69FB68B2FBF3F30E4A136003E00D4BE0
:10053C000D4A1A6000BF0A4B9B681B0903F00F039E
:10054C000B4AD35C3B61074B1A683B6922FA03F3F5
:10055C00044A136000BF1C37BD4680BC704700BF07
:10056C0000380240080000200024F40000127A0039
:10057C00640C000880B500AF00F0E6F900F046FA14
:10058C00002000F0EFF9022300220121412000F0AD
:10059C00A5FA022300220221412000F09FFA002339
:1005AC0001220321412000F099FA002301220421A9
:1005BC00412000F093FA002301220521412000F094
:1005CC008DFA00F06FF8344B1B78DBB2002B0DD199
:1005DC00324B1B78DBB2002B08D10121412000F0FB
:1005EC000BFB0346002B01D100F07AF82A4B1B7849
:1005FC00DBB2002B08D00221412000F0FDFA0346AB
:10060C00002B01D100F0B2F8234B1B78DBB2002B8E
:10061C001BD0224B1B78DBB2002B16D1204B93F94D
:10062C000030002B07D142F2107000F00BFA1C4B7B
:10063C0001221A7009E000F039FA0346002B04D0AD
:10064C0000F0B2F8164B00221A70134B1B78DBB279
:10065C00002B0DD0114B1B78DBB2002B08D00221E4
:10066C00412000F0C9FA0346002B01D100F0E6F856
:10067C00094B1B78DBB2002BA5D0084B1B78DBB2E7
:10068C00002BA0D10121412000F0B6FA0346002B2B
:10069C0099D100F00FF996E71E0000201F000020F2
:1006AC001D00002080B500AF00220321412000F086
:1006BC0077FA00220421412000F072FA0022052171
:1006CC00412000F06DFA044B00221A70034B0022FB
:1006DC001A7000BF80BD00BF1E0000201F0000204C
:1006EC0080B500AF01220321412000F059FA01220C
:1006FC000421412000F054FA01220521412000F090
:10070C004FFA4FF4FA7000F09DF900BF00F0CEF9EB
:10071C000346002BFAD000220421412000F040FABD
:10072C004FF4FA7000F08EF900BF00F0BFF90346E9
:10073C00002BFAD04FF47A7000F084F900BF00F06F
:10074C00B5F90346002BFAD000220521412000F018
:10075C0027FA044B01221A70034B00221A7000BFB7
:10076C0080BD00BF1E0000201F00002080B500AF20
:10077C0001220521412000F013FA4FF47A7000F0A9
:10078C0061F900BF00F092F90346002BFAD0044B3C
:10079C0001221A70034B01221A7000BF80BD00BFEA
:1007AC001E0000201F00002080B500AF0022032196
:1007BC00412000F0F5F900220521412000F0F0F96C
:1007CC0001220421412000F0EBF94FF4FA7000F003
:1007DC0039F900BF00F06AF90346002BFAD0002269
:1007EC000421412000F0DCF94FF4FA7000F02AF9F2
:1007FC0000BF00F05BF90346002BFAD00122042164
:10080C00412000F0CDF94FF4FA7000F01BF900BF55
:10081C0000F04CF90346002BFAD0002204214120B1
:10082C0000F0BEF9034B00221A70034B00221A7021
:10083C0000BF80BD1E0000201F00002080B500AF4F
:10084C0000220321412000F0ABF9002204214120B9
:10085C0000F0A6F900220521412000F0A1F94FF487
:10086C007A7000F0EFF800BF00F020F90346002B7F
:10087C00FAD001220521412000F092F94FF47A7050
:10088C0000F0E0F800BF00F011F90346002BFAD09D
:10089C0000220521412000F083F9044B01221A703B
:1008AC00034B00221A7000BF80BD00BF1E00002049
:1008BC001F00002080B500AF00220321412000F072
:1008CC006FF900220521412000F06AF90122042170
:1008DC00412000F065F94FF4FA7000F0B3F800BF56
:1008EC0000F0E4F80346002BFAD00022042141204A
:1008FC0000F056F94FF4FA7000F0A4F800BF00F0C5
:10090C00D5F80346002BFAD001220421412000F037
:10091C0047F94FF4FA7000F095F800BF00F0C6F8F4
:10092C000346002BFAD000220421412000F038F9B4
:10093C00034B00221A70034B00221A7000BF80BDBB
:10094C001E0000201F00002080B400AF044B1B6869
:10095C00034A43F00103136000BFBD4680BC7047DF
:10096C000038024080B485B000AF0346FB71FB79C0
:10097C005B09FB73FB7903F01F03BB73FB7B032B3E
:10098C0036D801A252F823F0A5090008BB090008CB
:10099C00D1090008E7090008184B1B68BA7B012134
:1009AC0001FA02F21146154A0B43136021E0144B75
:1009BC001B68BA7B012101FA02F21146104A0B4363
:1009CC00136016E00F4B1B68BA7B012101FA02F28F
:1009DC0011460C4A0B4313600BE00B4B1B68BA7BA4
:1009EC00012101FA02F21146074A0B43136000E0A1
:1009FC0000BF00BF1437BD4680BC70473038024082
:100A0C0034380240403802404438024080B400AFD1
:100A1C000B4B1B6C0A4A43F0010313644FF08043E9
:100A2C0040F23F629A624FF080435B694FF0804224
:100A3C0043F00103536100BFBD4680BC704700BF4B
:100A4C000038024080B483B000AF78604FF0804330
:100A5C001B684FF0804223F0010313604FF080437A
:100A6C0000225A620F4B00221A604FF080427B68C2
:100A7C00D3620D4A7B6813604FF080431B694FF0C3
:100A8C00804223F0010313614FF080431B684FF049
:100A9C00804243F00103136000BF0C37BD4680BC9D
:100AAC00704700BF200000202400002080B483B0D9
:100ABC0000AF4FF080431B694FF0804203F00103FD
:100ACC001361002B02D001237B6001E000237B60CB
:100ADC007B6818460C37BD4680BC704790B484B018
:100AEC0000AF0446084611461A462346FB710346DE
:100AFC00BB710B467B7113463B713B7903F00103D1
:100B0C00FB733B795B08BB73FB79413B7B737B7B52
:100B1C00224A52F82330BB60BB681B68BA7952007A
:100B2C00032101FA02F2D2431A40BB681A60BB6877
:100B3C001B687979BA79520001FA02F21A43BB6840
:100B4C001A60BB685B68BA79012101FA02F2D243E0
:100B5C001A40BB685A60BB685B68F97BBA7901FACA
:100B6C0002F21A43BB685A60BB68DB68BA79520060
:100B7C00032101FA02F2D2431A40BB68DA60BB6867
:100B8C00DB68B97BBA79520001FA02F21A43BB68EE
:100B9C00DA6000BF1037BD4690BC70470C000020D7
:100BAC0080B485B000AF0346FB710B46BB71134696
:100BBC007B71FB79413BFB73FB7B0E4A52F8233074
:100BCC00BB60BB685B69BA79012101FA02F2D243BE
:100BDC001A40BB685A61BB685B697979BA7901FACA
:100BEC0002F21A43BB685A6100BF1437BD4680BC81
:100BFC00704700BF0C00002080B485B000AF0346E6
:100C0C000A46FB711346BB710023FB73FB79413B16
:100C1C00BB73BB7B0F4A52F82330BB60BB681B69AC
:100C2C00BA79012101FA02F21A40BB7922FA03F3D4
:100C3C00FB73BB681B69BA79012101FA02F21A40F5
:100C4C00BB7922FA03F3FB73FB7B18461437BD46C2
:100C5C0080BC70470C000020000000000000000069
:080C6C00010203040607080958
:100C74001C000020000000000024F40000000240DA
:0C0C84000004024000080240000C024086
:040000050800019559
:00000001FF
